:100000000C942A000C9465000C9492000C94BF0090
:100010000C9447000C9447000C9447000C94470044
:100020000C9447000C9447000C9428020C94FB019C
:100030000C9447000C9447000C9447000C94470024
:100040000C9447000C9447000C9447000C94470014
:100050000C94470011241FBECFE5D8E0DEBFCDBF12
:1000600010E0A0E6B0E0E0EFF7E302C005900D92EB
:10007000A83AB107D9F710E0A8EAB0E001C01D9294
:10008000A23BB107E1F70E941E150C94F61B0C94DD
:100090000000DF93CF93CDB7DEB7ABE5B0E0EBE583
:1000A000F0E0808180648C93A5E5B0E0E5E5F0E0C8
:1000B000808181608C93A5E5B0E0E5E5F0E080818A
:1000C0008D7F8C93CF91DF9108951F920F920FB681
:1000D0000F9211242F933F934F935F936F937F93CE
:1000E0008F939F93AF93BF93EF93FF93DF93CF9340
:1000F000CDB7DEB7E091AC00F091AD000995CF919E
:10010000DF91FF91EF91BF91AF919F918F917F917F
:100110006F915F914F913F912F910F900FBE0F9074
:100120001F9018951F920F920FB60F9211242F93C4
:100130003F934F935F936F937F938F939F93AF936F
:10014000BF93EF93FF93DF93CF93CDB7DEB7E091EB
:10015000A800F091A9000995CF91DF91FF91EF914F
:10016000BF91AF919F918F917F916F915F914F91CF
:100170003F912F910F900FBE0F901F9018951F92D7
:100180000F920FB60F9211242F933F934F935F93CB
:100190006F937F938F939F93AF93BF93EF93FF934F
:1001A000DF93CF93CDB7DEB7E091AA00F091AB001B
:1001B0000995CF91DF91FF91EF91BF91AF919F9101
:1001C0008F917F916F915F914F913F912F910F9000
:1001D0000FBE0F901F901895DF93CF9300D0CDB72F
:1001E000DEB79A83898389819A819093AD00809349
:1001F000AC000F900F90CF91DF910895DF93CF93D4
:1002000000D0CDB7DEB79A83898389819A81909394
:10021000A9008093A8000F900F90CF91DF910895CF
:10022000DF93CF9300D0CDB7DEB79A8389838981DE
:100230009A819093AB008093AA000F900F90CF917A
:10024000DF910895DF93CF93CDB7DEB7AAE2B0E098
:10025000EAE2F0E0808180618C93AAE2B0E0EAE219
:10026000F0E0808188688C93A0E4B0E0E0E4F0E006
:1002700080818F7E8C93A0E4B0E0E0E4F0E08081A8
:100280008F7D8C93A0E4B0E0E0E4F0E080818668AC
:100290008C93E9E2F0E087E68083E0E4F0E010820E
:1002A000CF91DF910895DF93CF930F92CDB7DEB753
:1002B0008983EBE2F0E08081882F90E0807290707B
:1002C0000097B9F3ECE2F0E0898180830F90CF9141
:1002D000DF910895DF93CF93CDB7DEB7EBE2F0E087
:1002E00080818823DCF7ECE2F0E08081CF91DF9120
:1002F0000895DF93CF930F92CDB7DEB78983ECE5F6
:10030000F0E0898180830F90CF91DF910895DF9392
:10031000CF93CDB7DEB7E2E5F0E01082A3E5B0E021
:10032000E3E5F0E0808180648C93A3E5B0E0E3E551
:10033000F0E0808188608C93A3E5B0E0E3E5F0E035
:1003400080818F7E8C93A3E5B0E0E3E5F0E08081CF
:100350008F7D8C93A3E5B0E0E3E5F0E080818061E0
:100360008C93A3E5B0E0E3E5F0E0808180628C93BC
:10037000A3E5B0E0E3E5F0E0808181608C93A3E544
:10038000B0E0E3E5F0E080818D7F8C93A3E5B0E001
:10039000E3E5F0E0808184608C93A9E5B0E0E9E5D5
:1003A000F0E080818E7F8C93CF91DF910895DF9371
:1003B000CF9300D0CDB7DEB79A83898389819A81A4
:1003C0009093AF008093AE000F900F90CF91DF918C
:1003D0000895DF93CF9300D0CDB7DEB79A8389839A
:1003E00089819A819093B1008093B0000F900F9013
:1003F000CF91DF9108951F920F920FB60F921124A3
:100400002F933F934F935F936F937F938F939F931C
:10041000AF93BF93EF93FF93DF93CF93CDB7DEB747
:10042000E091AE00F091AF000995CF91DF91FF917F
:10043000EF91BF91AF919F918F917F916F915F915C
:100440004F913F912F910F900FBE0F901F901895D5
:100450001F920F920FB60F9211242F933F934F9339
:100460005F936F937F938F939F93AF93BF93EF931C
:10047000FF93DF93CF93CDB7DEB7E091B000F0915B
:10048000B1000995CF91DF91FF91EF91BF91AF91AD
:100490009F918F917F916F915F914F913F912F919C
:1004A0000F900FBE0F901F901895DF93CF93CDB78D
:1004B000DEB7ADE2B0E0EDE2F0E0808180648C93E5
:1004C000ADE2B0E0EDE2F0E080818F7E8C93ADE2B2
:1004D000B0E0EDE2F0E08081877F8C93ADE2B0E0A8
:1004E000EDE2F0E080818B7F8C93ADE2B0E0EDE255
:1004F000F0E0808181608C93CF91DF910895DF934C
:10050000CF93CDB7DEB7EEE2F0E080818823DCF751
:10051000EFE2F0E08081CF91DF910895DF93CF93F8
:100520000F92CDB7DEB78983E2E2F0E08981808364
:10053000E6E5F0E084EC80830F90CF91DF910895A1
:10054000DF93CF9300D0CDB7DEB7E6E5F0E0808152
:100550008823DCF70F900F90CF91DF910895DF9300
:10056000CF9300D00F92CDB7DEB78A83E3E2F0E0FD
:100570008A818083E6E5F0E084EC8083E6E5F0E0C4
:1005800080818823DCF7E1E2F0E08081887F898345
:100590008981803A51F4A6E5B0E0E6E5F0E080819B
:1005A00080688C938FEF8B831AC08981883B11F40C
:1005B0001B8215C08981803C51F4A6E5B0E0E6E5D8
:1005C000F0E0808180688C938EEF8B8308C08981F6
:1005D000883C19F48DEF8B8302C08CEF8B838B8169
:1005E0000F900F900F90CF91DF910895DF93CF93ED
:1005F00000D0CDB7DEB7E6E5F0E084EC8083E6E539
:10060000F0E080818823DCF7E1E2F0E08081887F00
:1006100089838981803819F08981803929F4E3E25E
:10062000F0E080818A831AC08981883819F0898135
:10063000883929F4E3E2F0E080818A830FC0898160
:10064000803A51F4A6E5B0E0E6E5F0E0808180680C
:100650008C938FEF8A8302C08EEF8A838A810F90FA
:100660000F90CF91DF9108950F931F93DF93CF9356
:10067000CDB7DEB700E210E0E1E2F0E0108220E06A
:1006800030E040E050E460E070E080E193E40E94FC
:100690008918DC01CB01BC01CD010E94B915DC0138
:1006A000CB01F8018083CF91DF911F910F910895C5
:1006B000DF93CF9300D00F92CDB7DEB78A83E6E504
:1006C000F0E084EA8083E6E5F0E080818823DCF7CF
:1006D000E1E2F0E08081887F89838981883011F0B0
:1006E0001B8220C0E3E2F0E08A818083E6E5F0E04F
:1006F00084E88083E6E5F0E080818823DCF7E1E2AE
:10070000F0E08081887F89838981883119F481E0D4
:100710008B8308C08981803219F482E08B8302C008
:1007200083E08B838B810F900F900F90CF91DF919F
:100730000895DF93CF9300D00F92CDB7DEB78A83B1
:10074000E6E5F0E084EA8083E6E5F0E08081882356
:10075000DCF7E1E2F0E08081887F89838981803164
:1007600011F01B8220C0E3E2F0E08A818083E6E59D
:10077000F0E084E88083E6E5F0E080818823DCF720
:10078000E1E2F0E08081887F89838981803419F4F7
:1007900081E08B8308C08981803219F482E08B83E9
:1007A00002C083E08B838B810F900F900F90CF91CD
:1007B000DF910895DF93CF93CDB7DEB7E6E5F0E0A4
:1007C00084E98083E6E5F0E08081882F90E0807105
:1007D00090700097B9F7CF91DF910895DF93CF9391
:1007E00000D0CDB7DEB78A83E6E5F0E084EA808307
:1007F000E6E5F0E080818823DCF7E1E2F0E080814B
:10080000887F89838981883079F7E3E2F0E08A8103
:100810008083E6E5F0E084E88083E6E5F0E080812F
:100820008823DCF7E1E2F0E08081887F8983898199
:10083000883119F00E94DA03D7CF0F900F90CF9133
:10084000DF910895DF93CF9300D00F92CDB7DEB73D
:100850008A83E3E2F0E08A818083E6E5F0E084E8E1
:100860008083E6E5F0E080818823DCF7E1E2F0E0D8
:100870008081887F89838981883211F41B8208C036
:100880008981803319F481E08B8302C082E08B83FD
:100890008B810F900F900F90CF91DF910895DF9390
:1008A000CF93CDB7DEB7E6E5F0E084EC8083E6E5F4
:1008B000F0E080818823DCF7E3E2F0E08081CF91F3
:1008C000DF910895DF93CF93CDB7DEB7E6E5F0E093
:1008D00084E88083E6E5F0E080818823DCF7E3E2CA
:1008E000F0E08081CF91DF910895DF93CF9300D026
:1008F000CDB7DEB789836A838981883060F58A81C4
:100900008130A1F4ABE3B0E0EBE3F0E08081482F6D
:100910008981282F30E081E090E0022E02C0880F0C
:10092000991F0A94E2F7842B8C93BCC0ABE3B0E030
:10093000EBE3F0E08081482F8981282F30E081E0CF
:1009400090E0022E02C0880F991F0A94E2F780956A
:1009500084238C93A7C089818830A8F18981803154
:1009600090F58A818130B9F4A8E3B0E0E8E3F0E0E3
:100970008081482F8981882F90E09C012850304049
:1009800081E090E0022E02C0880F991F0A94E2F7DE
:10099000842B8C9387C0A8E3B0E0E8E3F0E080818B
:1009A000482F8981882F90E09C012850304081E0B9
:1009B00090E0022E02C0880F991F0A94E2F78095FA
:1009C00084238C936FC089818031A8F1898188311B
:1009D00090F58A818130B9F4A5E3B0E0E5E3F0E079
:1009E0008081482F8981882F90E09C0120513040E0
:1009F00081E090E0022E02C0880F991F0A94E2F76E
:100A0000842B8C934FC0A5E3B0E0E5E3F0E0808158
:100A1000482F8981882F90E09C012051304081E04F
:100A200090E0022E02C0880F991F0A94E2F7809589
:100A300084238C9337C089818831A0F189818032E9
:100A400088F58A818130B9F4A2E3B0E0E2E3F0E016
:100A50008081482F8981882F90E09C012851304067
:100A600081E090E0022E02C0880F991F0A94E2F7FD
:100A7000842B8C9317C0A2E3B0E0E2E3F0E0808126
:100A8000482F8981882F90E09C012851304081E0D7
:100A900090E0022E02C0880F991F0A94E2F7809519
:100AA00084238C930F900F90CF91DF910895DF9363
:100AB000CF9300D0CDB7DEB78A8319828A81883080
:100AC00090F4E9E3F0E08081282F30E08A81882FDC
:100AD00090E0A90102C0559547958A95E2F7CA01B1
:100AE000817089834AC08A818830B0F08A818031E0
:100AF00098F4E6E3F0E08081282F30E08A81882FA7
:100B000090E00897A90102C0559547958A95E2F7AC
:100B1000CA018170898331C08A818031B0F08A81B5
:100B2000883198F4E3E3F0E08081282F30E08A8177
:100B3000882F90E04097A90102C0559547958A9566
:100B4000E2F7CA018170898318C08A818831A8F0D0
:100B50008A81803290F4E0E3F0E08081282F30E059
:100B60008A81882F90E04897A90102C05595479542
:100B70008A95E2F7CA01817089838981882F90E084
:100B80000F900F90CF91DF910895DF93CF9300D016
:100B900000D0CDB7DEB71A8219821A82198258C1E5
:100BA00029813A81C901880F991F820F931FFC0187
:100BB000E05AFF4F8081282F30E03C832B838B81CC
:100BC0009C818130910509F461C02B813C812230E8
:100BD00031052CF48B819C81009771F034C12B81FD
:100BE0003C812230310509F49BC08B819C8183308C
:100BF000910509F4DFC027C129813A81C901880F15
:100C0000991F820F931FFC01EE59FF4F80818130A5
:100C1000F1F4AAE3B0E0EAE3F0E08081482F298113
:100C20003A81C901880F991F820F931FFC01EF5968
:100C3000FF4F8081282F30E081E090E0022E02C03B
:100C4000880F991F0A94E2F7842B8C93FCC0AAE3C7
:100C5000B0E0EAE3F0E08081482F29813A81C901C0
:100C6000880F991F820F931FFC01EF59FF4F80815E
:100C7000282F30E081E090E0022E02C0880F991FFB
:100C80000A94E2F7809584238C93DDC029813A8110
:100C9000C901880F991F820F931FFC01EE59FF4F66
:100CA00080818130F1F4A7E3B0E0E7E3F0E08081F8
:100CB000482F29813A81C901880F991F820F931FFC
:100CC000FC01EF59FF4F8081282F30E081E090E058
:100CD000022E02C0880F991F0A94E2F7842B8C938E
:100CE000B2C0A7E3B0E0E7E3F0E08081482F2981BC
:100CF0003A81C901880F991F820F931FFC01EF5998
:100D0000FF4F8081282F30E081E090E0022E02C06A
:100D1000880F991F0A94E2F7809584238C9393C0DF
:100D200029813A81C901880F991F820F931FFC0105
:100D3000EE59FF4F80818130F1F4A4E3B0E0E4E3A9
:100D4000F0E08081482F29813A81C901880F991FDD
:100D5000820F931FFC01EF59FF4F8081282F30E055
:100D600081E090E0022E02C0880F991F0A94E2F7FA
:100D7000842B8C9368C0A4E3B0E0E4E3F0E08081CE
:100D8000482F29813A81C901880F991F820F931F2B
:100D9000FC01EF59FF4F8081282F30E081E090E087
:100DA000022E02C0880F991F0A94E2F780958423CF
:100DB0008C9349C029813A81C901880F991F820FFC
:100DC000931FFC01EE59FF4F80818130F1F4A1E3C4
:100DD000B0E0E1E3F0E08081482F29813A81C90148
:100DE000880F991F820F931FFC01EF59FF4F8081DD
:100DF000282F30E081E090E0022E02C0880F991F7A
:100E00000A94E2F7842B8C931EC0A1E3B0E0E1E3E7
:100E1000F0E08081482F29813A81C901880F991F0C
:100E2000820F931FFC01EF59FF4F8081282F30E084
:100E300081E090E0022E02C0880F991F0A94E2F729
:100E4000809584238C9389819A8101969A838983E2
:100E500089819A818531910508F4A2CE0F900F9077
:100E60000F900F90CF91DF910895DF93CF93CDB77F
:100E7000DEB7A6E2B0E0E6E2F0E0808180688C9325
:100E8000A7E2B0E0E7E2F0E080818F7B8C93A7E2FD
:100E9000B0E0E7E2F0E080818F778C93A7E2B0E0EA
:100EA000E7E2F0E0808180628C93CF91DF9108953A
:100EB000DF93CF930F92CDB7DEB78983A7E2B0E07F
:100EC000E7E2F0E08081982F90778981892B8C93DD
:100ED000A6E2B0E0E6E2F0E0808180648C93E6E296
:100EE000F0E0808182958F70882F90E08170907003
:100EF0000097A9F3A6E2B0E0E6E2F0E0808180612D
:100F00008C93E4E2F0E0808191810F90CF91DF91AA
:100F100008950F931F93DF93CF93CDB7DEB7C056DD
:100F2000D0400FB6F894DEBF0FBECDBF83E161E0C5
:100F30000E94750484E160E00E94750485E160E030
:100F40000E94750486E160E00E947504FE01E35A88
:100F5000FF4F80E090E0A8ECB2E480839183A2830D
:100F6000B3838E01075A1F4FFE01E35AFF4F608182
:100F70007181828193812BEA3AEA4AEA50E40E9425
:100F80008F17DC01CB01F80180839183A283B383A7
:100F9000FE01E75AFF4F608171818281938120E0D9
:100FA00030E040E85FE30E949519882334F4FE01A5
:100FB000E85AFF4F81E08083E0C0FE01E75AFF4F0F
:100FC000608171818281938120E030E04FE753E4BA
:100FD0000E94351918160CF0C0C0FE01E35AFF4FED
:100FE000608171818281938120E030E04AE754E49E
:100FF0000E948918DC01CB01FE01EC5AFF4F80836F
:101000009183A283B3838E01005B1F4FFE01EC5AD4
:10101000FF4F608171818281938120E030E04AE757
:1010200055E40E948F17DC01CB01F8018083918386
:10103000A283B383FE01E05BFF4F608171818281F7
:10104000938120E030E040E85FE30E949519882317
:1010500044F4FE01E25BFF4F81E090E091838083E6
:1010600064C0FE01E05BFF4F6081718182819381EA
:1010700020E03FEF4FE757E40E94351918160CF0B7
:1010800043C0FE01EC5AFF4F6081718182819381E0
:1010900020E030E040E251E40E948F17DC01CB01F8
:1010A0008E01025B1F4FBC01CD010E94B915DC010E
:1010B000CB01F801918380831FC0FE01E45BFF4FE9
:1010C00080E991E091838083FE01E45BFF4F8081A2
:1010D00091810197F1F7FE01E45BFF4F91838083DB
:1010E000DE01A25BBF4FFE01E25BFF4F8081918179
:1010F000019711969C938E93FE01E25BFF4F8081D6
:1011000091810097D1F64BC08E01025B1F4FFE010B
:10111000E05BFF4F60817181828193810E94B915EC
:10112000DC01CB01F80191838083DE01A65BBF4F18
:10113000FE01E25BFF4F8081918111969C938E931B
:10114000FE01E65BFF4F808191810197F1F7FE017F
:10115000E65BFF4F9183808322C08E01085A1F4FA8
:10116000FE01E75AFF4F60817181828193810E9465
:10117000B915DC01CB01F8018083DE01A75BBF4F0D
:10118000FE01E85AFF4F80818C93FE01E75BFF4F21
:1011900080818A95F1F7FE01E75BFF4F808383E151
:1011A00060E00E94750484E161E00E94750485E1BD
:1011B00060E00E94750486E160E00E947504FE0113
:1011C000EB5BFF4F80E090E0A8ECB2E4808391837A
:1011D000A283B3838E010F5B1F4FFE01EB5BFF4FBA
:1011E00060817181828193812BEA3AEA4AEA50E474
:1011F0000E948F17DC01CB01F80180839183A283C9
:10120000B383FE01EF5BFF4F608171818281938127
:1012100020E030E040E85FE30E949519882334F431
:1012200081E0FE01E05CFF4F80839DC0FE01EF5B2B
:10123000FF4F608171818281938120E030E04FE730
:1012400053E40E94351918160CF07EC0FE01EB5BCA
:10125000FF4F608171818281938120E030E04AE715
:1012600054E40E948918DC01CB018CAF9DAFAEAF76
:10127000BFAF6CAD7DAD8EAD9FAD20E030E04AE7F5
:1012800055E40E948F17DC01CB0188AF99AFAAAF5C
:10129000BBAF68AD79AD8AAD9BAD20E030E040E8F2
:1012A0005FE30E94951988232CF481E090E09FABC6
:1012B0008EAB3FC068AD79AD8AAD9BAD20E03FEF0E
:1012C0004FE757E40E94351918164CF56CAD7DAD0B
:1012D0008EAD9FAD20E030E040E251E40E948F17D8
:1012E000DC01CB01BC01CD010E94B915DC01CB01B1
:1012F0009FAB8EAB0FC080E991E09DAB8CAB8CA90E
:101300009DA90197F1F79DAB8CAB8EA99FA9019781
:101310009FAB8EAB8EA99FA9009769F72DC068ADD2
:1013200079AD8AAD9BAD0E94B915DC01CB019FABB5
:101330008EAB8EA99FA99BAB8AAB8AA99BA901976B
:10134000F1F79BAB8AAB18C0FE01EF5BFF4F6081EA
:101350007181828193810E94B915DC01CB01FE016C
:10136000E05CFF4F8083FE01E05CFF4F808189AB32
:1013700089A98A95F1F789AB83E160E00E94750441
:1013800084E160E00E94750485E161E00E947504DB
:1013900086E160E00E94750480E090E0A8ECB2E491
:1013A0008DA79EA7AFA7B8AB6DA57EA58FA598A961
:1013B0002BEA3AEA4AEA50E40E948F17DC01CB019B
:1013C00089A79AA7ABA7BCA769A57AA58BA59CA559
:1013D00020E030E040E85FE30E94951988231CF488
:1013E00081E088A791C069A57AA58BA59CA520E07E
:1013F00030E04FE753E40E94351918160CF07BC01B
:101400006DA57EA58FA598A920E030E04AE754E4B9
:101410000E948918DC01CB018CA39DA3AEA3BFA3BE
:101420006CA17DA18EA19FA120E030E04AE755E4A8
:101430000E948F17DC01CB0188A399A3AAA3BBA3A9
:1014400068A179A18AA19BA120E030E040E85FE398
:101450000E94951988232CF481E090E09F8F8E8F55
:101460003FC068A179A18AA19BA120E03FEF4FE78F
:1014700057E40E94351918164CF56CA17DA18EA178
:101480009FA120E030E040E251E40E948F17DC0190
:10149000CB01BC01CD010E94B915DC01CB019F8FAE
:1014A0008E8F0FC080E991E09D8F8C8F8C8D9D8DEC
:1014B0000197F1F79D8F8C8F8E8D9F8D01979F8F58
:1014C0008E8F8E8D9F8D009769F724C068A179A1BA
:1014D0008AA19BA10E94B915DC01CB019F8F8E8F41
:1014E0008E8D9F8D9B8F8A8F8A8D9B8D0197F1F7B3
:1014F0009B8F8A8F0FC069A57AA58BA59CA50E949A
:10150000B915DC01CB0188A788A5898F898D8A95BB
:10151000F1F7898F83E160E00E94750484E160E067
:101520000E94750485E160E00E94750486E161E037
:101530000E94750480E090E0A8ECB2E48D8B9E8B55
:10154000AF8BB88F6D897E898F89988D2BEA3AEAA7
:101550004AEA50E40E948F17DC01CB01898B9A8BF9
:10156000AB8BBC8B69897A898B899C8920E030E0C0
:1015700040E85FE30E94951988231CF481E0888B82
:1015800091C069897A898B899C8920E030E04FE796
:1015900053E40E94351918160CF07BC06D897E89C2
:1015A0008F89988D20E030E04AE754E40E94891842
:1015B000DC01CB018C879D87AE87BF876C857D85DD
:1015C0008E859F8520E030E04AE755E40E948F1722
:1015D000DC01CB0188879987AA87BB8768857985D5
:1015E0008A859B8520E030E040E85FE30E94951902
:1015F00088232CF481E090E09F838E833FC0688530
:1016000079858A859B8520E03FEF4FE757E40E946C
:10161000351918164CF56C857D858E859F8520E0E3
:1016200030E040E251E40E948F17DC01CB01BC01A5
:10163000CD010E94B915DC01CB019F838E830FC0C1
:1016400080E991E09D838C838C819D810197F1F7E6
:101650009D838C838E819F8101979F838E838E8152
:101660009F81009769F724C0688579858A859B8565
:101670000E94B915DC01CB019F838E838E819F81EF
:101680009B838A838A819B810197F1F79B838A835D
:101690000FC069897A898B899C890E94B915DC0100
:1016A000CB01888B8889898389818A95F1F7898321
:1016B000C05ADF4F0FB6F894DEBF0FBECDBFCF913B
:1016C000DF911F910F910895DF93CF930F92CDB7C4
:1016D000DEB78CE161E00E9475048DE161E00E945B
:1016E00075048EE161E00E9475048FE161E00E9463
:1016F000750488E160E00E94750489E160E00E9461
:1017000075048AE160E00E9475048BE160E00E944C
:1017100075048CE10E945705009791F08DE10E94BD
:101720005705009769F08EE10E945705009741F038
:101730008FE10E945705009719F081E0898301C06D
:10174000198289810F90CF91DF910895DF93CF9314
:10175000CDB7DEB72E970FB6F894DEBF0FBECDBF64
:1017600080E090E0A8E4B3E48B879C87AD87BE87D8
:101770006B857C858D859E8520E030E04AE755E4C9
:101780000E948F17DC01CB018F839887A987BA87C6
:101790006F81788589859A8520E030E040E85FE3B5
:1017A0000E94951988232CF481E090E09E838D831C
:1017B0003FC06F81788589859A8520E03FEF4FE7AC
:1017C00057E40E94351918164CF56B857C858D857C
:1017D0009E8520E030E040E251E40E948F17DC015A
:1017E000CB01BC01CD010E94B915DC01CB019E8368
:1017F0008D830FC080E991E09C838B838B819C81DA
:101800000197F1F79C838B838D819E8101979E8345
:101810008D838D819E81009769F714C06F817885D3
:1018200089859A850E94B915DC01CB019E838D8341
:101830008D819E819A83898389819A810197F1F7AD
:101840009A83898383E30E94971082E30E94971012
:1018500088E20E9497108FE00E94971086E00E9415
:10186000971081E00E9497102E960FB6F894DEBF75
:101870000FBECDBFCF91DF9108950F931F93DF93DC
:10188000CF93CDB7DEB7C156D0400FB6F894DEBFC8
:101890000FBECDBFFE01EF59FF4F808389E061E0AD
:1018A0000E9475048AE060E00E947504FE01EF5911
:1018B000FF4F808182958F70882F90E081709070AB
:1018C000882329F084E061E00E94750404C084E06C
:1018D00060E00E947504FE01EF59FF4F8081829500
:1018E00086958770882F90E081709070882329F00A
:1018F00085E061E00E94750404C085E060E00E941C
:101900007504FE01EF59FF4F80818295869586957B
:101910008370882F90E081709070882329F086E092
:1019200061E00E94750404C086E060E00E947504D6
:10193000FE01EF59FF4F808188232CF487E061E09E
:101940000E94750404C087E060E00E9475048BE08B
:1019500061E00E947504FE01E35AFF4F80E090E0D1
:10196000A0E2B1E480839183A283B3838E01075AFE
:101970001F4FFE01E35AFF4F608171818281938185
:101980002BEA3AEA4AEA50E40E948F17DC01CB01C5
:10199000F80180839183A283B383FE01E75AFF4F4E
:1019A000608171818281938120E030E040E85FE3D3
:1019B0000E949519882334F4FE01E85AFF4F81E014
:1019C0008083E0C0FE01E75AFF4F60817181828110
:1019D000938120E030E04FE753E40E943519181658
:1019E0000CF0C0C0FE01E35AFF4F6081718182811B
:1019F000938120E030E04AE754E40E948918DC013A
:101A0000CB01FE01EC5AFF4F80839183A283B38305
:101A10008E01005B1F4FFE01EC5AFF4F6081718108
:101A20008281938120E030E04AE755E40E948F17DD
:101A3000DC01CB01F80180839183A283B383FE0193
:101A4000E05BFF4F608171818281938120E030E013
:101A500040E85FE30E949519882344F4FE01E25BAD
:101A6000FF4F81E090E09183808364C0FE01E05BE2
:101A7000FF4F608171818281938120E03FEF4FE7CA
:101A800057E40E94351918160CF043C0FE01EC5AB9
:101A9000FF4F608171818281938120E030E040E2DC
:101AA00051E40E948F17DC01CB018E01025B1F4FB6
:101AB000BC01CD010E94B915DC01CB01F801918375
:101AC00080831FC0FE01E45BFF4F80E991E09183BA
:101AD0008083FE01E45BFF4F808191810197F1F7E4
:101AE000FE01E45BFF4F91838083DE01A25BBF4F69
:101AF000FE01E25BFF4F80819181019711969C93DB
:101B00008E93FE01E25BFF4F808191810097D1F6B9
:101B10004BC08E01025B1F4FFE01E05BFF4F6081F7
:101B20007181828193810E94B915DC01CB01F8019A
:101B300091838083DE01A65BBF4FFE01E25BFF4F16
:101B40008081918111969C938E93FE01E65BFF4FFD
:101B5000808191810197F1F7FE01E65BFF4F918350
:101B6000808322C08E01085A1F4FFE01E75AFF4FA3
:101B700060817181828193810E94B915DC01CB0162
:101B8000F8018083DE01A75BBF4FFE01E85AFF4FDB
:101B900080818C93FE01E75BFF4F80818A95F1F78E
:101BA000FE01E75BFF4F80838BE060E00E947504DD
:101BB000FE01EB5BFF4F80E090E0A8E4B3E480839C
:101BC0009183A283B3838E010F5B1F4FFE01EB5BFA
:101BD000FF4F60817181828193812BEA3AEA4AEA60
:101BE00050E40E948F17DC01CB01F80180839183C0
:101BF000A283B383FE01EF5BFF4F6081718182811D
:101C0000938120E030E040E85FE30E94951988234B
:101C100034F481E0FE01E05CFF4F80839DC0FE0153
:101C2000EF5BFF4F608171818281938120E030E022
:101C30004FE753E40E94351918160CF07EC0FE01E0
:101C4000EB5BFF4F608171818281938120E030E006
:101C50004AE754E40E948918DC01CB018CAF9DAFA8
:101C6000AEAFBFAF6CAD7DAD8EAD9FAD20E030E0CF
:101C70004AE755E40E948F17DC01CB0188AF99AF8A
:101C8000AAAFBBAF68AD79AD8AAD9BAD20E030E0C7
:101C900040E85FE30E94951988232CF481E090E0EE
:101CA0009FAB8EAB3FC068AD79AD8AAD9BAD20E0F8
:101CB0003FEF4FE757E40E94351918164CF56CAD0D
:101CC0007DAD8EAD9FAD20E030E040E251E40E945A
:101CD0008F17DC01CB01BC01CD010E94B915DC01DD
:101CE000CB019FAB8EAB0FC080E991E09DAB8CAB7D
:101CF0008CA99DA90197F1F79DAB8CAB8EA99FA9EB
:101D000001979FAB8EAB8EA99FA9009769F72DC055
:101D100068AD79AD8AAD9BAD0E94B915DC01CB01F0
:101D20009FAB8EAB8EA99FA99BAB8AAB8AA99BA9BF
:101D30000197F1F79BAB8AAB18C0FE01EF5BFF4F39
:101D400060817181828193810E94B915DC01CB0190
:101D5000FE01E05CFF4F8083FE01E05CFF4F80816D
:101D600089AB89A98A95F1F789ABFE01EF59FF4F3D
:101D70008081882F90E081709070882329F084E022
:101D800061E00E94750404C084E060E00E94750474
:101D9000FE01EF59FF4F80818695882F90E081707A
:101DA0009070882329F085E061E00E94750404C0EA
:101DB00085E060E00E947504FE01EF59FF4F8081CD
:101DC00086958695882F90E081709070882329F001
:101DD00086E061E00E94750404C086E060E00E9435
:101DE0007504FE01EF59FF4F808186958695869593
:101DF000882F90E081709070882329F087E061E05F
:101E00000E94750404C087E060E00E9475048BE0C6
:101E100061E00E94750480E090E0A0E2B1E48DA74B
:101E20009EA7AFA7B8AB6DA57EA58FA598A92BEAF5
:101E30003AEA4AEA50E40E948F17DC01CB0189A7F5
:101E40009AA7ABA7BCA769A57AA58BA59CA520E0FE
:101E500030E040E85FE30E94951988231CF481E09C
:101E600088A791C069A57AA58BA59CA520E030E044
:101E70004FE753E40E94351918160CF07BC06DA58E
:101E80007EA58FA598A920E030E04AE754E40E949F
:101E90008918DC01CB018CA39DA3AEA3BFA36CA1C9
:101EA0007DA18EA19FA120E030E04AE755E40E9489
:101EB0008F17DC01CB0188A399A3AAA3BBA368A1B8
:101EC00079A18AA19BA120E030E040E85FE30E9475
:101ED000951988232CF481E090E09F8F8E8F3FC06E
:101EE00068A179A18AA19BA120E03FEF4FE757E4C9
:101EF0000E94351918164CF56CA17DA18EA19FA1E9
:101F000020E030E040E251E40E948F17DC01CB0179
:101F1000BC01CD010E94B915DC01CB019F8F8E8FD2
:101F20000FC080E991E09D8F8C8F8C8D9D8D0197E6
:101F3000F1F79D8F8C8F8E8D9F8D01979F8F8E8F48
:101F40008E8D9F8D009769F724C068A179A18AA121
:101F50009BA10E94B915DC01CB019F8F8E8F8E8DC6
:101F60009F8D9B8F8A8F8A8D9B8D0197F1F79B8F19
:101F70008A8F0FC069A57AA58BA59CA50E94B9156B
:101F8000DC01CB0188A788A5898F898D8A95F1F717
:101F9000898F8BE060E00E94750480E090E0A8E407
:101FA000B3E48D8B9E8BAF8BB88F6D897E898F89C3
:101FB000988D2BEA3AEA4AEA50E40E948F17DC0136
:101FC000CB01898B9A8BAB8BBC8B69897A898B8986
:101FD0009C8920E030E040E85FE30E949519882367
:101FE0001CF481E0888B91C069897A898B899C89EE
:101FF00020E030E04FE753E40E94351918160CF04A
:102000007BC06D897E898F89988D20E030E04AE71A
:1020100054E40E948918DC01CB018C879D87AE8730
:10202000BF876C857D858E859F8520E030E04AE7FF
:1020300055E40E948F17DC01CB0188879987AA8716
:10204000BB87688579858A859B8520E030E040E8FC
:102050005FE30E94951988232CF481E090E09F8330
:102060008E833FC0688579858A859B8520E03FEF18
:102070004FE757E40E94351918164CF56C857D859D
:102080008E859F8520E030E040E251E40E948F176A
:10209000DC01CB01BC01CD010E94B915DC01CB01F3
:1020A0009F838E830FC080E991E09D838C838C8118
:1020B0009D810197F1F79D838C838E819F8101978C
:1020C0009F838E838E819F81009769F724C06885E6
:1020D00079858A859B850E94B915DC01CB019F8398
:1020E0008E838E819F819B838A838A819B810197C6
:1020F000F1F79B838A830FC069897A898B899C89D0
:102100000E94B915DC01CB01888B8889898389817C
:102110008A95F1F78983CF59DF4F0FB6F894DEBF68
:102120000FBECDBFCF91DF911F910F9108950F93F7
:102130001F93DF93CF93CDB7DEB7C156D0400FB614
:10214000F894DEBF0FBECDBFFE01EF59FF4F808375
:1021500089E060E00E9475048AE060E00E947504F6
:10216000FE01EF59FF4F808182958F70882F90E09C
:1021700081709070882329F084E061E00E947504EA
:1021800004C084E060E00E947504FE01EF59FF4F37
:102190008081829586958770882F90E081709070FD
:1021A000882329F085E061E00E94750404C085E081
:1021B00060E00E947504FE01EF59FF4F8081829517
:1021C000869586958370882F90E081709070882323
:1021D00029F086E061E00E94750404C086E060E0BA
:1021E0000E947504FE01EF59FF4F808188232CF473
:1021F00087E061E00E94750404C087E060E00E940F
:1022000075048BE061E00E947504FE01E35AFF4F04
:1022100080E090E0A0E2B1E480839183A283B38365
:102220008E01075A1F4FFE01E35AFF4F60817181F3
:10223000828193812BEA3AEA4AEA50E40E948F179E
:10224000DC01CB01F80180839183A283B383FE017B
:10225000E75AFF4F608171818281938120E030E0F5
:1022600040E85FE30E949519882334F4FE01E85AA0
:10227000FF4F81E08083E0C0FE01E75AFF4F60819D
:1022800071818281938120E030E04FE753E40E9426
:10229000351918160CF0C0C0FE01E35AFF4F6081DB
:1022A00071818281938120E030E04AE754E40E940A
:1022B0008918DC01CB01FE01EC5AFF4F808391832A
:1022C000A283B3838E01005B1F4FFE01EC5AFF4FC8
:1022D000608171818281938120E030E04AE755E49A
:1022E0000E948F17DC01CB01F80180839183A283C8
:1022F000B383FE01E05BFF4F608171818281938136
:1023000020E030E040E85FE30E949519882344F420
:10231000FE01E25BFF4F81E090E09183808364C027
:10232000FE01E05BFF4F608171818281938120E03B
:102330003FEF4FE757E40E94351918160CF043C0E1
:10234000FE01EC5AFF4F608171818281938120E010
:1023500030E040E251E40E948F17DC01CB018E0196
:10236000025B1F4FBC01CD010E94B915DC01CB01FE
:10237000F801918380831FC0FE01E45BFF4F80E979
:1023800091E091838083FE01E45BFF4F8081918126
:102390000197F1F7FE01E45BFF4F91838083DE013B
:1023A000A25BBF4FFE01E25BFF4F808191810197ED
:1023B00011969C938E93FE01E25BFF4F8081918189
:1023C0000097D1F64BC08E01025B1F4FFE01E05B10
:1023D000FF4F60817181828193810E94B915DC0178
:1023E000CB01F80191838083DE01A65BBF4FFE0124
:1023F000E25BFF4F8081918111969C938E93FE0149
:10240000E65BFF4F808191810197F1F7FE01E65B6A
:10241000FF4F9183808322C08E01085A1F4FFE0117
:10242000E75AFF4F60817181828193810E94B915C3
:10243000DC01CB01F8018083DE01A75BBF4FFE0109
:10244000E85AFF4F80818C93FE01E75BFF4F80814C
:102450008A95F1F7FE01E75BFF4F80838BE060E038
:102460000E947504FE01EB5BFF4F80E090E0AAEF55
:10247000B4E480839183A283B3838E010F5B1F4FEB
:10248000FE01EB5BFF4F60817181828193812BEABA
:102490003AEA4AEA50E40E948F17DC01CB01F801C6
:1024A00080839183A283B383FE01EF5BFF4F608142
:1024B00071818281938120E030E040E85FE30E94F7
:1024C0009519882334F481E0FE01E05CFF4F80839E
:1024D0009DC0FE01EF5BFF4F60817181828193811E
:1024E00020E030E04FE753E40E94351918160CF055
:1024F0007EC0FE01EB5BFF4F608171818281938121
:1025000020E030E04AE754E40E948918DC01CB0166
:102510008CAF9DAFAEAFBFAF6CAD7DAD8EAD9FAD9F
:1025200020E030E04AE755E40E948F17DC01CB0140
:1025300088AF99AFAAAFBBAF68AD79AD8AAD9BAD9F
:1025400020E030E040E85FE30E94951988232CF4F6
:1025500081E090E09FAB8EAB3FC068AD79AD8AADB6
:102560009BAD20E03FEF4FE757E40E943519181666
:102570004CF56CAD7DAD8EAD9FAD20E030E040E21E
:1025800051E40E948F17DC01CB01BC01CD010E94F8
:10259000B915DC01CB019FAB8EAB0FC080E991E098
:1025A0009DAB8CAB8CA99DA90197F1F79DAB8CAB32
:1025B0008EA99FA901979FAB8EAB8EA99FA900976B
:1025C00069F72DC068AD79AD8AAD9BAD0E94B91594
:1025D000DC01CB019FAB8EAB8EA99FA99BAB8AABD5
:1025E0008AA99BA90197F1F79BAB8AAB18C0FE01A2
:1025F000EF5BFF4F60817181828193810E94B915E9
:10260000DC01CB01FE01E05CFF4F8083FE01E05C5A
:10261000FF4F808189AB89A98A95F1F789ABFE01CB
:10262000EF59FF4F8081882F90E081709070882350
:1026300029F084E061E00E94750404C084E060E059
:102640000E947504FE01EF59FF4F80818695882F07
:1026500090E081709070882329F085E061E00E940D
:10266000750404C085E060E00E947504FE01EF5926
:10267000FF4F808186958695882F90E081709070BD
:10268000882329F086E061E00E94750404C086E09A
:1026900060E00E947504FE01EF59FF4F808186952E
:1026A00086958695882F90E081709070882329F018
:1026B00087E061E00E94750404C087E060E00E944A
:1026C00075048BE061E00E94750480E090E0A0E278
:1026D000B1E48DA79EA7AFA7B8AB6DA57EA58FA5CA
:1026E00098A92BEA3AEA4AEA50E40E948F17DC01E3
:1026F000CB0189A79AA7ABA7BCA769A57AA58BA58B
:102700009CA520E030E040E85FE30E949519882313
:102710001CF481E088A791C069A57AA58BA59CA52A
:1027200020E030E04FE753E40E94351918160CF012
:102730007BC06DA57EA58FA598A920E030E04AE773
:1027400054E40E948918DC01CB018CA39DA3AEA3A5
:10275000BFA36CA17DA18EA19FA120E030E04AE73C
:1027600055E40E948F17DC01CB0188A399A3AAA38B
:10277000BBA368A179A18AA19BA120E030E040E839
:102780005FE30E94951988232CF481E090E09F8FED
:102790008E8F3FC068A179A18AA19BA120E03FEF65
:1027A0004FE757E40E94351918164CF56CA17DA12E
:1027B0008EA19FA120E030E040E251E40E948F17FB
:1027C000DC01CB01BC01CD010E94B915DC01CB01BC
:1027D0009F8F8E8F0FC080E991E09D8F8C8F8C8DA5
:1027E0009D8D0197F1F79D8F8C8F8E8D9F8D019719
:1027F0009F8F8E8F8E8D9F8D009769F724C068A163
:1028000079A18AA19BA10E94B915DC01CB019F8F00
:102810008E8F8E8D9F8D9B8F8A8F8A8D9B8D01973A
:10282000F1F79B8F8A8F0FC069A57AA58BA59CA510
:102830000E94B915DC01CB0188A788A5898F898DF5
:102840008A95F1F7898F8BE060E00E94750480E043
:1028500090E0AAEFB4E48D8B9E8BAF8BB88F6D891F
:102860007E898F89988D2BEA3AEA4AEA50E40E94E1
:102870008F17DC01CB01898B9A8BAB8BBC8B698961
:102880007A898B899C8920E030E040E85FE30E94F0
:10289000951988231CF481E0888B91C069897A8915
:1028A0008B899C8920E030E04FE753E40E94351982
:1028B00018160CF07BC06D897E898F89988D20E079
:1028C00030E04AE754E40E948918DC01CB018C8790
:1028D0009D87AE87BF876C857D858E859F8520E02F
:1028E00030E04AE755E40E948F17DC01CB0188876E
:1028F0009987AA87BB87688579858A859B8520E02B
:1029000030E040E85FE30E94951988232CF481E0D1
:1029100090E09F838E833FC0688579858A859B85FB
:1029200020E03FEF4FE757E40E94351918164CF5A9
:102930006C857D858E859F8520E030E040E251E406
:102940000E948F17DC01CB01BC01CD010E94B9159B
:10295000DC01CB019F838E830FC080E991E09D83D2
:102960008C838C819D810197F1F79D838C838E816F
:102970009F8101979F838E838E819F81009769F746
:1029800024C0688579858A859B850E94B915DC01FC
:10299000CB019F838E838E819F819B838A838A81D3
:1029A0009B810197F1F79B838A830FC069897A899C
:1029B0008B899C890E94B915DC01CB01888B8889A1
:1029C000898389818A95F1F78983CF59DF4F0FB6C3
:1029D000F894DEBF0FBECDBFCF91DF911F910F9155
:1029E0000895DF93CF9300D000D0CDB7DEB79C839E
:1029F0008B831A8219821A8219820FC029813A8127
:102A00008B819C81FC01E20FF31F80810E943D0CB1
:102A100089819A8101969A83898329813A818B8160
:102A20009C81FC01E20FF31F8081882339F70F900E
:102A30000F900F900F90CF91DF910895DF93CF9378
:102A4000CDB7DEB72F970FB6F894DEBF0FBECDBF60
:102A500081E48F870E94A60B0E94340380E20E94CB
:102A600058038F850E94220480E20E9499038CE41F
:102A70000E9422040E94DA0380E090E0AAE7B4E416
:102A80008B879C87AD87BE876B857C858D859E8572
:102A900020E030E04AE755E40E948F17DC01CB01CB
:102AA0008F839887A987BA876F81788589859A856A
:102AB00020E030E040E85FE30E94951988232CF481
:102AC00081E090E09E838D833FC06F81788589850A
:102AD0009A8520E03FEF4FE757E40E94351918161A
:102AE0004CF56B857C858D859E8520E030E040E24D
:102AF00051E40E948F17DC01CB01BC01CD010E9483
:102B0000B915DC01CB019E838D830FC080E991E074
:102B10009C838B838B819C810197F1F79C838B83B2
:102B20008D819E8101979E838D838D819E810097EB
:102B300069F714C06F81788589859A850E94B915D7
:102B4000DC01CB019E838D838D819E819A83898355
:102B500089819A810197F1F79A83898380E090E0D7
:102B60002F960FB6F894DEBF0FBECDBFCF91DF9189
:102B70000895EF92FF920F931F937B018C0120E049
:102B800030E040E05FE40E94651988238CF0C801C2
:102B9000B70120E030E040E05FE40E9431170E947E
:102BA000C5199B01AC01205030404040504806C040
:102BB000C801B7010E94C5199B01AC01B901CA0146
:102BC0001F910F91FF90EF900895A0E0B0E0EBEE21
:102BD000F5E10C94BF1BDC012B01FA019C919230B2
:102BE00008F439C1EB018881823008F433C1943094
:102BF00069F4843009F02FC111969C911197898155
:102C0000981709F428C1AFE9B0E025C1843009F470
:102C100021C18230A9F4923009F01DC19A01AD01A1
:102C200088E0EA010990AE01E90109929E01815014
:102C3000C1F7E201898111969C918923818308C1A2
:102C4000923009F407C112962D903C901397EB0136
:102C50008A819B811496AD90BD90CD90DC901797A2
:102C6000EC80FD800E811F819101281B390BB90179
:102C700037FF04C066277727621B730B603271052C
:102C80000CF061C0121613066CF537014801062ED0
:102C900004C096948794779467940A94D2F721E0BD
:102CA00030E040E050E004C0220F331F441F551FA6
:102CB0006A95D2F721503040404050402E213F21AC
:102CC00040235123211531054105510521F021E013
:102CD00030E040E050E079018A01E628F728082931
:102CE00019293CC0232BD1F1260E371E3501460190
:102CF000062E04C096948794779467940A94D2F72A
:102D000021E030E040E050E004C0220F331F441FB8
:102D1000551F6A95D2F721503040404050402A213B
:102D20003B214C215D21211531054105510521F043
:102D300021E030E040E050E059016A01A628B728C0
:102D4000C828D9280BC0821593052CF01C01AA2491
:102D5000BB24650103C0EE24FF24870111969C91DA
:102D6000D20111968C91981709F445C0992339F036
:102D7000A80197012A193B094C095D0906C0A60163
:102D800095012E193F09400B510B57FD08C01182C8
:102D90003382228224833583468357831DC081E09A
:102DA00081833382228288279927DC01821B930B3F
:102DB000A40BB50B84839583A683B7830DC0220F24
:102DC000331F441F551F24833583468357838281D5
:102DD0009381019793838283248135814681578132
:102DE000DA01C9010197A109B1098F5F9F4FAF4F68
:102DF000BF4328F30BC0918333822282EA0CFB1C71
:102E00000C1D1D1DE482F5820683178383E08083F9
:102E1000248135814681578157FF1AC0C901AA27ED
:102E200097FDA095BA2F81709070A070B0705695E4
:102E3000479537952795822B932BA42BB52B84830D
:102E40009583A683B783828193810196938382833E
:102E5000DF0101C0D201CD01CDB7DEB7E2E10C94B4
:102E6000DB1BA0E2B0E0E7E3F7E10C94CB1B698346
:102E70007A838B839C832D833E834F835887E9E03D
:102E8000EE2EF12CEC0EFD1ECE010196B7010E9434
:102E9000EE1A8E010F5E1F4FCE010596B8010E94FB
:102EA000EE1A8A8991E089278A8BC701B801AE01A1
:102EB000475E5F4F0E94E5150E94191AA096E6E052
:102EC0000C94E71BA0E2B0E0E8E6F7E10C94CB1B22
:102ED00069837A838B839C832D833E834F835887BA
:102EE000F9E0EF2EF12CEC0EFD1ECE010196B7019C
:102EF0000E94EE1A8E010F5E1F4FCE010596B8019B
:102F00000E94EE1AC701B801AE01475E5F4F0E94F2
:102F1000E5150E94191AA096E6E00C94E71BA0E2C2
:102F2000B0E0E5E9F7E10C94BF1B69837A838B83FA
:102F30009C832D833E834F835887CE010196BE012B
:102F4000675F7F4F0E94EE1ACE010596BE016F5E4D
:102F50007F4F0E94EE1A9985923088F089898230DD
:102F6000C8F0943019F4823051F404C0843029F44C
:102F7000923081F48FE990E0C6C0923049F420E0AD
:102F80009A858A89981321E02A87CE010996BBC0C9
:102F9000823049F420E09A858A89981321E02A8BAF
:102FA000CE014196B0C02D843E844F8458886D88F0
:102FB0007E888F88988CEE24FF248701AA24BB2466
:102FC000650140E050E060E070E0E0E0F0E0C10169
:102FD00081709070892BE9F0E60CF71C081D191D13
:102FE0009A01AB012A0D3B1D4C1D5D1D80E090E058
:102FF000A0E0B0E0E614F7040805190520F481E02C
:1030000090E0A0E0B0E0BA01A901480F591F6A1F83
:103010007B1FAA0CBB1CCC1CDD1C97FE08C081E0EA
:1030200090E0A0E0B0E0A82AB92ACA2ADB2A3196AB
:10303000E032F10549F0660C771C881C991C569407
:10304000479437942794C3CFFA85EA892B893C8922
:103050008B859C85280F391F2E5F3F4F17C0CA01F3
:1030600081709070892B61F016950795F794E7941D
:1030700080E090E0A0E0B0E8E82AF92A0A2B1B2BB8
:1030800076956795579547952F5F3F4F77FDE7CF2B
:103090000CC0440F551F661F771F17FD4160EE0CD3
:1030A000FF1C001F111F21503040403090E0590795
:1030B00090E0690790E4790760F32B8F3C8FDB0188
:1030C000CA018F779070A070B07080349105A1050F
:1030D000B10561F447FD0AC0E114F10401051105D1
:1030E00029F0405C5F4F6F4F7F4F40781A8EFE177C
:1030F00011F081E08A8F4D8F5E8F6F8F78A383E010
:10310000898FCE0149960E94191AA096E2E10C948B
:10311000DB1BA8E1B0E0EFE8F8E10C94C71B698382
:103120007A838B839C832D833E834F835887B9E0BA
:10313000EB2EF12CEC0EFD1ECE010196B7010E9484
:10314000EE1A8E010F5E1F4FCE010596B8010E9448
:10315000EE1A2985223008F47EC03989323010F405
:10316000B8017CC08A859A8989278A87243011F022
:10317000223031F4231709F06EC06FE970E06EC0A1
:10318000343039F41D861E861F86188A1C861B86DD
:1031900004C0323021F484E08987B7015FC02B85F9
:1031A0003C858B899C89281B390B3C872B87ED84B8
:1031B000FE840F851889AD88BE88CF88D88CEA1424
:1031C000FB040C051D0540F4EE0CFF1C001F111F35
:1031D000215030403C872B8720E030E040E050E039
:1031E00080E090E0A0E0B0E460E070E0EA14FB046E
:1031F0000C051D0540F0282B392B4A2B5B2BEA18B8
:10320000FB080C091D09B695A79597958795EE0CB7
:10321000FF1C001F111F6F5F7F4F6F31710531F76A
:10322000DA01C9018F779070A070B0708034910579
:10323000A105B10561F427FD0AC0E114F1040105FF
:10324000110529F0205C3F4F4F4F5F4F20782D87AD
:103250003E874F87588BBE01675F7F4FCB010E942F
:10326000191A6896EAE00C94E31BA8E1B0E0EBE3DE
:10327000F9E10C94CB1B69837A838B839C832D8328
:103280003E834F83588789E0E82EF12CEC0EFD1E1B
:10329000CE010196B7010E94EE1A8E010F5E1F4FFC
:1032A000CE010596B8010E94EE1A8985823040F061
:1032B0008989823028F0C701B8010E94661B01C0CD
:1032C0008FEF6896E6E00C94E71BA8E1B0E0EBE630
:1032D000F9E10C94CB1B69837A838B839C832D83C8
:1032E0003E834F83588789E0E82EF12CEC0EFD1EBB
:1032F000CE010196B7010E94EE1A8E010F5E1F4F9C
:10330000CE010596B8010E94EE1A8985823040F000
:103310008989823028F0C701B8010E94661B01C06C
:103320008FEF6896E6E00C94E71BA8E1B0E0EBE9CC
:10333000F9E10C94CB1B69837A838B839C832D8367
:103340003E834F83588789E0E82EF12CEC0EFD1E5A
:10335000CE010196B7010E94EE1A8E010F5E1F4F3B
:10336000CE010596B8010E94EE1A8985823040F0A0
:103370008989823028F0C701B8010E94661B01C00C
:1033800081E06896E6E00C94E71BACE0B0E0EBEC83
:10339000F9E10C94CF1B69837A838B839C83CE01E4
:1033A0000196BE016B5F7F4F0E94EE1A8D818230C5
:1033B00061F1823050F1843021F48E81882351F103
:1033C0002EC02F81388537FD20C06E812F31310509
:1033D0001CF06623F9F023C08EE190E0821B930B72
:1033E00029853A854B855C8504C056954795379568
:1033F00027958A95D2F76623B1F050954095309580
:1034000021953F4F4F4F5F4F0EC020E030E040E02E
:1034100050E009C02FEF3FEF4FEF5FE704C020E01F
:1034200030E040E050E8B901CA012C96E2E00C948B
:10343000EB1BDF92EF92FF920F931F93FC01E4804E
:10344000F58006811781D1808081823048F480E048
:1034500090E0A0E1B0E0E82AF92A0A2B1B2BA5C0D6
:10346000843009F49FC0823021F4EE24FF248701C8
:1034700005C0E114F1040105110519F4E0E0F0E0E4
:1034800096C0628173819FEF623879070CF05BC050
:1034900022E83FEF261B370B2A3131052CF020E0C4
:1034A00030E040E050E02AC0B801A701022E04C07D
:1034B00076956795579547950A94D2F781E090E005
:1034C000A0E0B0E004C0880F991FAA1FBB1F2A9577
:1034D000D2F70197A109B1098E219F21A023B12321
:1034E0000097A105B10521F081E090E0A0E0B0E0F7
:1034F0009A01AB01282B392B4A2B5B2BDA01C9012E
:103500008F779070A070B07080349105A105B105DF
:1035100039F427FF09C0205C3F4F4F4F5F4F04C075
:10352000215C3F4F4F4F5F4FE0E0F0E02030A0E0E4
:103530003A07A0E04A07A0E45A0710F0E1E0F0E003
:1035400079018A0127C06038710564F5FB01E158F3
:10355000FF4FD801C7018F779070A070B070803492
:103560009105A105B10539F4E7FE0DC080E490E0B6
:10357000A0E0B0E004C08FE390E0A0E0B0E0E80E8F
:10358000F91E0A1F1B1F17FF05C016950795F79414
:10359000E794319687E016950795F794E7948A9516
:1035A000D1F705C0EE24FF248701EFEFF0E06E2F86
:1035B000679566276795902F9F77D794DD24D794DA
:1035C0008E2F8695492F462B582F5D29B701CA01AA
:1035D0001F910F91FF90EF90DF900895FC01DB01A8
:1035E000408151812281622F6F7770E0221F222754
:1035F000221F9381892F880F822B282F30E0991F5B
:103600009927991F11969C93119721153105A9F5BA
:10361000411551056105710511F482E037C082E85A
:103620009FEF13969C938E9312979A01AB0167E0DC
:10363000220F331F441F551F6A95D1F783E08C93E7
:103640000DC0220F331F441F551F12968D919C9160
:103650001397019713969C938E931297203080E0D6
:10366000380780E0480780E4580758F314962D93F4
:103670003D934D935C93179708952F3F310579F44F
:10368000411551056105710519F484E08C93089585
:1036900064FF03C081E08C9312C01C9210C02F57AE
:1036A000304013963C932E93129783E08C9387E0DF
:1036B000440F551F661F771F8A95D1F770641496C3
:1036C0004D935D936D937C93179708951F93DC0141
:1036D000FB019C91923008F447C08081823008F44D
:1036E00043C0943051F411961C91843099F5818136
:1036F000682F70E0611B71093FC0843021F0923067
:1037000031F48230B9F18181882389F12DC011967D
:103710001C9111978230F1F081811817D9F412961B
:103720002D913C911397828193818217930794F096
:1037300028173907BCF014968D919D910D90BC917E
:10374000A02D2481358146815781281739074A07E2
:103750005B0718F4112341F00AC082179307A407EE
:10376000B50740F4112319F061E070E005C06FEF78
:103770007FEF02C060E070E0CB011F9108952F92AF
:103780003F924F925F926F927F928F929F92AF92F1
:10379000BF92CF92DF92EF92FF920F931F93CF933E
:1037A000DF93CDB7DEB7CA1BDB0B0FB6F894DEBFD5
:1037B0000FBECDBF09942A88398848885F846E84FB
:1037C0007D848C849B84AA84B984C884DF80EE8045
:1037D000FD800C811B81AA81B981CE0FD11D0FB64E
:1037E000F894DEBF0FBECDBFED010895F894FFCF72
:1037F00003000103010103020003030103040003AA
:10380000050003060003070000070100060100058C
:103810000100040101030101020101010101040091
:103820000105000106010107000207010202010073
:08383000000000000000000090
:00000001FF
